{
  "_format": "hh-sol-artifact-1",
  "contractName": "AttestationContract",
  "sourceName": "contracts/AttestationContract.sol",
  "abi": [
    {
      "anonymous": false,
      "inputs": [
        {
          "indexed": true,
          "internalType": "uint256",
          "name": "assetId",
          "type": "uint256"
        },
        {
          "indexed": true,
          "internalType": "address",
          "name": "verifier",
          "type": "address"
        },
        {
          "indexed": false,
          "internalType": "bool",
          "name": "success",
          "type": "bool"
        },
        {
          "indexed": false,
          "internalType": "uint256",
          "name": "timestamp",
          "type": "uint256"
        }
      ],
      "name": "AttestationCompleted",
      "type": "event"
    },
    {
      "inputs": [
        {
          "internalType": "uint256",
          "name": "assetId",
          "type": "uint256"
        },
        {
          "internalType": "bool",
          "name": "success",
          "type": "bool"
        }
      ],
      "name": "createAttestation",
      "outputs": [],
      "stateMutability": "nonpayable",
      "type": "function"
    },
    {
      "inputs": [
        {
          "internalType": "uint256",
          "name": "assetId",
          "type": "uint256"
        },
        {
          "internalType": "uint256",
          "name": "index",
          "type": "uint256"
        }
      ],
      "name": "getAttestation",
      "outputs": [
        {
          "internalType": "address",
          "name": "verifier",
          "type": "address"
        },
        {
          "internalType": "uint256",
          "name": "timestamp",
          "type": "uint256"
        },
        {
          "internalType": "bool",
          "name": "success",
          "type": "bool"
        }
      ],
      "stateMutability": "view",
      "type": "function"
    },
    {
      "inputs": [
        {
          "internalType": "uint256",
          "name": "assetId",
          "type": "uint256"
        }
      ],
      "name": "getAttestationCount",
      "outputs": [
        {
          "internalType": "uint256",
          "name": "",
          "type": "uint256"
        }
      ],
      "stateMutability": "view",
      "type": "function"
    }
  ],
  "bytecode": "0x608060405234801561001057600080fd5b50610502806100206000396000f3fe608060405234801561001057600080fd5b50600436106100415760003560e01c80632dea6caa14610046578063fc71113314610062578063ff1f94b514610094575b600080fd5b610060600480360381019061005b9190610316565b6100c4565b005b61007c60048036038101906100779190610356565b610200565b60405161008b939291906103f5565b60405180910390f35b6100ae60048036038101906100a9919061042c565b610284565b6040516100bb9190610459565b60405180910390f35b600060405180606001604052803373ffffffffffffffffffffffffffffffffffffffff168152602001428152602001831515815250905060008084815260200190815260200160002081908060018154018082558091505060019003906000526020600020906003020160009091909190915060008201518160000160006101000a81548173ffffffffffffffffffffffffffffffffffffffff021916908373ffffffffffffffffffffffffffffffffffffffff1602179055506020820151816001015560408201518160020160006101000a81548160ff02191690831515021790555050503373ffffffffffffffffffffffffffffffffffffffff16837f750e82850ed2024b2e10ae5fb8d9c3882f0339f2628025604451d669169d6b0584426040516101f3929190610474565b60405180910390a3505050565b600080600080600080878152602001908152602001600020858154811061022a5761022961049d565b5b906000526020600020906003020190508060000160009054906101000a900473ffffffffffffffffffffffffffffffffffffffff1681600101548260020160009054906101000a900460ff16935093509350509250925092565b6000806000838152602001908152602001600020805490509050919050565b600080fd5b6000819050919050565b6102bb816102a8565b81146102c657600080fd5b50565b6000813590506102d8816102b2565b92915050565b60008115159050919050565b6102f3816102de565b81146102fe57600080fd5b50565b600081359050610310816102ea565b92915050565b6000806040838503121561032d5761032c6102a3565b5b600061033b858286016102c9565b925050602061034c85828601610301565b9150509250929050565b6000806040838503121561036d5761036c6102a3565b5b600061037b858286016102c9565b925050602061038c858286016102c9565b9150509250929050565b600073ffffffffffffffffffffffffffffffffffffffff82169050919050565b60006103c182610396565b9050919050565b6103d1816103b6565b82525050565b6103e0816102a8565b82525050565b6103ef816102de565b82525050565b600060608201905061040a60008301866103c8565b61041760208301856103d7565b61042460408301846103e6565b949350505050565b600060208284031215610442576104416102a3565b5b6000610450848285016102c9565b91505092915050565b600060208201905061046e60008301846103d7565b92915050565b600060408201905061048960008301856103e6565b61049660208301846103d7565b9392505050565b7f4e487b7100000000000000000000000000000000000000000000000000000000600052603260045260246000fdfea2646970667358221220d87d7a505c300e71017d7cc5cac66ef7109ee7e43d62a010b8127916ebe2261964736f6c63430008140033",
  "linkReferences": {},
  "deployedLinkReferences": {}
}