{
  "_format": "hh-sol-artifact-1",
  "contractName": "RWAProcess",
  "sourceName": "contracts/RWAProcess.sol",
  "abi": [
    {
      "inputs": [
        {
          "internalType": "address",
          "name": "_assetToken",
          "type": "address"
        },
        {
          "internalType": "address",
          "name": "_marketplace",
          "type": "address"
        },
        {
          "internalType": "address",
          "name": "_oracle",
          "type": "address"
        },
        {
          "internalType": "bytes32",
          "name": "_jobId",
          "type": "bytes32"
        },
        {
          "internalType": "uint256",
          "name": "_fee",
          "type": "uint256"
        },
        {
          "internalType": "address",
          "name": "_linkToken",
          "type": "address"
        }
      ],
      "stateMutability": "nonpayable",
      "type": "constructor"
    },
    {
      "anonymous": false,
      "inputs": [
        {
          "indexed": true,
          "internalType": "bytes32",
          "name": "id",
          "type": "bytes32"
        }
      ],
      "name": "ChainlinkCancelled",
      "type": "event"
    },
    {
      "anonymous": false,
      "inputs": [
        {
          "indexed": true,
          "internalType": "bytes32",
          "name": "id",
          "type": "bytes32"
        }
      ],
      "name": "ChainlinkFulfilled",
      "type": "event"
    },
    {
      "anonymous": false,
      "inputs": [
        {
          "indexed": true,
          "internalType": "bytes32",
          "name": "id",
          "type": "bytes32"
        }
      ],
      "name": "ChainlinkRequested",
      "type": "event"
    },
    {
      "inputs": [],
      "name": "assetToken",
      "outputs": [
        {
          "internalType": "contract AssetToken",
          "name": "",
          "type": "address"
        }
      ],
      "stateMutability": "view",
      "type": "function"
    },
    {
      "inputs": [
        {
          "internalType": "bytes",
          "name": "",
          "type": "bytes"
        }
      ],
      "name": "checkUpkeep",
      "outputs": [
        {
          "internalType": "bool",
          "name": "upkeepNeeded",
          "type": "bool"
        },
        {
          "internalType": "bytes",
          "name": "",
          "type": "bytes"
        }
      ],
      "stateMutability": "view",
      "type": "function"
    },
    {
      "inputs": [],
      "name": "fee",
      "outputs": [
        {
          "internalType": "uint256",
          "name": "",
          "type": "uint256"
        }
      ],
      "stateMutability": "view",
      "type": "function"
    },
    {
      "inputs": [
        {
          "internalType": "bytes32",
          "name": "_requestId",
          "type": "bytes32"
        },
        {
          "internalType": "bytes",
          "name": "_data",
          "type": "bytes"
        }
      ],
      "name": "fulfill",
      "outputs": [],
      "stateMutability": "nonpayable",
      "type": "function"
    },
    {
      "inputs": [],
      "name": "jobId",
      "outputs": [
        {
          "internalType": "bytes32",
          "name": "",
          "type": "bytes32"
        }
      ],
      "stateMutability": "view",
      "type": "function"
    },
    {
      "inputs": [],
      "name": "marketplace",
      "outputs": [
        {
          "internalType": "contract Marketplace",
          "name": "",
          "type": "address"
        }
      ],
      "stateMutability": "view",
      "type": "function"
    },
    {
      "inputs": [
        {
          "internalType": "address",
          "name": "seller",
          "type": "address"
        },
        {
          "internalType": "string",
          "name": "tokenURI",
          "type": "string"
        },
        {
          "internalType": "uint256",
          "name": "price",
          "type": "uint256"
        }
      ],
      "name": "mintAndSwap",
      "outputs": [],
      "stateMutability": "nonpayable",
      "type": "function"
    },
    {
      "inputs": [],
      "name": "oracle",
      "outputs": [
        {
          "internalType": "address",
          "name": "",
          "type": "address"
        }
      ],
      "stateMutability": "view",
      "type": "function"
    },
    {
      "inputs": [
        {
          "internalType": "bytes",
          "name": "",
          "type": "bytes"
        }
      ],
      "name": "performUpkeep",
      "outputs": [],
      "stateMutability": "nonpayable",
      "type": "function"
    }
  ],
  "bytecode": "0x608060405260016004553480156200001657600080fd5b50604051620018873803806200188783398181016040528101906200003c91906200024e565b85600660006101000a81548173ffffffffffffffffffffffffffffffffffffffff021916908373ffffffffffffffffffffffffffffffffffffffff16021790555084600760006101000a81548173ffffffffffffffffffffffffffffffffffffffff021916908373ffffffffffffffffffffffffffffffffffffffff160217905550620000cf816200012a60201b60201c565b83600960006101000a81548173ffffffffffffffffffffffffffffffffffffffff021916908373ffffffffffffffffffffffffffffffffffffffff16021790555082600a8190555081600881905550505050505050620002ea565b80600260006101000a81548173ffffffffffffffffffffffffffffffffffffffff021916908373ffffffffffffffffffffffffffffffffffffffff16021790555050565b600080fd5b600073ffffffffffffffffffffffffffffffffffffffff82169050919050565b6000620001a08262000173565b9050919050565b620001b28162000193565b8114620001be57600080fd5b50565b600081519050620001d281620001a7565b92915050565b6000819050919050565b620001ed81620001d8565b8114620001f957600080fd5b50565b6000815190506200020d81620001e2565b92915050565b6000819050919050565b620002288162000213565b81146200023457600080fd5b50565b60008151905062000248816200021d565b92915050565b60008060008060008060c087890312156200026e576200026d6200016e565b5b60006200027e89828a01620001c1565b96505060206200029189828a01620001c1565b9550506040620002a489828a01620001c1565b9450506060620002b789828a01620001fc565b9350506080620002ca89828a0162000237565b92505060a0620002dd89828a01620001c1565b9150509295509295509295565b61158d80620002fa6000396000f3fe608060405234801561001057600080fd5b50600436106100935760003560e01c80637dc0d1d0116100665780637dc0d1d01461011f578063abc8c7af1461013d578063c2939d971461015b578063ddca3f4314610179578063e58d940f1461019757610093565b80631083f761146100985780634585e33b146100b65780636e04ff0d146100d25780637c1de7e114610103575b600080fd5b6100a06101b3565b6040516100ad919061098c565b60405180910390f35b6100d060048036038101906100cb9190610a20565b6101d9565b005b6100ec60048036038101906100e79190610a20565b6101dd565b6040516100fa929190610b18565b60405180910390f35b61011d60048036038101906101189190610cae565b6101ec565b005b6101276102f6565b6040516101349190610d2b565b60405180910390f35b61014561031c565b6040516101529190610d67565b60405180910390f35b610163610342565b6040516101709190610d91565b60405180910390f35b610181610348565b60405161018e9190610dc5565b60405180910390f35b6101b160048036038101906101ac9190610ed9565b61034e565b005b600660009054906101000a900473ffffffffffffffffffffffffffffffffffffffff1681565b5050565b60006060600091509250929050565b816005600082815260200190815260200160002060009054906101000a900473ffffffffffffffffffffffffffffffffffffffff1673ffffffffffffffffffffffffffffffffffffffff163373ffffffffffffffffffffffffffffffffffffffff161461028e576040517f08c379a000000000000000000000000000000000000000000000000000000000815260040161028590610fcb565b60405180910390fd5b6005600082815260200190815260200160002060006101000a81549073ffffffffffffffffffffffffffffffffffffffff0219169055807f7cc135e0cebb02c3480ae5d74d377283180a2601f8f644edf7987b009316c63a60405160405180910390a2505050565b600960009054906101000a900473ffffffffffffffffffffffffffffffffffffffff1681565b600760009054906101000a900473ffffffffffffffffffffffffffffffffffffffff1681565b600a5481565b60085481565b6000600660009054906101000a900473ffffffffffffffffffffffffffffffffffffffff1673ffffffffffffffffffffffffffffffffffffffff16633515736d85856040518363ffffffff1660e01b81526004016103ad92919061102f565b6020604051808303816000875af11580156103cc573d6000803e3d6000fd5b505050506040513d601f19601f820116820180604052508101906103f09190611074565b9050600760009054906101000a900473ffffffffffffffffffffffffffffffffffffffff1673ffffffffffffffffffffffffffffffffffffffff1663534ed7078284866107e8610bea6040518663ffffffff1660e01b8152600401610459959493929190611163565b600060405180830381600087803b15801561047357600080fd5b505af1158015610487573d6000803e3d6000fd5b5050505060006104a1600a5430637c1de7e160e01b6104da565b90506104d2600960009054906101000a900473ffffffffffffffffffffffffffffffffffffffff168260085461050b565b505050505050565b6104e2610886565b6104ea610886565b610501858585846105d7909392919063ffffffff16565b9150509392505050565b600080600454905060018161052091906111ff565b6004819055506000634042994660e01b60008087600001513089604001518760018c608001516000015160405160240161056198979695949392919061126e565b604051602081830303815290604052907bffffffffffffffffffffffffffffffffffffffffffffffffffffffff19166020820180517bffffffffffffffffffffffffffffffffffffffffffffffffffffffff838183161783525050505090506105cc86838684610687565b925050509392505050565b6105df610886565b6105ef856080015161010061081c565b508385600001818152505082856020019073ffffffffffffffffffffffffffffffffffffffff16908173ffffffffffffffffffffffffffffffffffffffff16815250508185604001907bffffffffffffffffffffffffffffffffffffffffffffffffffffffff191690817bffffffffffffffffffffffffffffffffffffffffffffffffffffffff191681525050849050949350505050565b6000308460405160200161069c92919061136e565b604051602081830303815290604052805190602001209050846005600083815260200190815260200160002060006101000a81548173ffffffffffffffffffffffffffffffffffffffff021916908373ffffffffffffffffffffffffffffffffffffffff160217905550807fb5e6e01e79f91267dc17b4e6314d5d4d03593d2ceee0fbb452b750bd70ea5af960405160405180910390a2600260009054906101000a900473ffffffffffffffffffffffffffffffffffffffff1673ffffffffffffffffffffffffffffffffffffffff16634000aea08685856040518463ffffffff1660e01b81526004016107929392919061139a565b6020604051808303816000875af11580156107b1573d6000803e3d6000fd5b505050506040513d601f19601f820116820180604052508101906107d59190611404565b610814576040517f08c379a000000000000000000000000000000000000000000000000000000000815260040161080b906114a3565b60405180910390fd5b949350505050565b6108246108f3565b600060208361083391906114f2565b1461085f5760208261084591906114f2565b60206108519190611523565b8261085c91906111ff565b91505b81836020018181525050604051808452600081528281016020016040525082905092915050565b6040518060a0016040528060008019168152602001600073ffffffffffffffffffffffffffffffffffffffff16815260200160007bffffffffffffffffffffffffffffffffffffffffffffffffffffffff19168152602001600081526020016108ed6108f3565b81525090565b604051806040016040528060608152602001600081525090565b600073ffffffffffffffffffffffffffffffffffffffff82169050919050565b6000819050919050565b600061095261094d6109488461090d565b61092d565b61090d565b9050919050565b600061096482610937565b9050919050565b600061097682610959565b9050919050565b6109868161096b565b82525050565b60006020820190506109a1600083018461097d565b92915050565b6000604051905090565b600080fd5b600080fd5b600080fd5b600080fd5b600080fd5b60008083601f8401126109e0576109df6109bb565b5b8235905067ffffffffffffffff8111156109fd576109fc6109c0565b5b602083019150836001820283011115610a1957610a186109c5565b5b9250929050565b60008060208385031215610a3757610a366109b1565b5b600083013567ffffffffffffffff811115610a5557610a546109b6565b5b610a61858286016109ca565b92509250509250929050565b60008115159050919050565b610a8281610a6d565b82525050565b600081519050919050565b600082825260208201905092915050565b60005b83811015610ac2578082015181840152602081019050610aa7565b60008484015250505050565b6000601f19601f8301169050919050565b6000610aea82610a88565b610af48185610a93565b9350610b04818560208601610aa4565b610b0d81610ace565b840191505092915050565b6000604082019050610b2d6000830185610a79565b8181036020830152610b3f8184610adf565b90509392505050565b6000819050919050565b610b5b81610b48565b8114610b6657600080fd5b50565b600081359050610b7881610b52565b92915050565b600080fd5b7f4e487b7100000000000000000000000000000000000000000000000000000000600052604160045260246000fd5b610bbb82610ace565b810181811067ffffffffffffffff82111715610bda57610bd9610b83565b5b80604052505050565b6000610bed6109a7565b9050610bf98282610bb2565b919050565b600067ffffffffffffffff821115610c1957610c18610b83565b5b610c2282610ace565b9050602081019050919050565b82818337600083830152505050565b6000610c51610c4c84610bfe565b610be3565b905082815260208101848484011115610c6d57610c6c610b7e565b5b610c78848285610c2f565b509392505050565b600082601f830112610c9557610c946109bb565b5b8135610ca5848260208601610c3e565b91505092915050565b60008060408385031215610cc557610cc46109b1565b5b6000610cd385828601610b69565b925050602083013567ffffffffffffffff811115610cf457610cf36109b6565b5b610d0085828601610c80565b9150509250929050565b6000610d158261090d565b9050919050565b610d2581610d0a565b82525050565b6000602082019050610d406000830184610d1c565b92915050565b6000610d5182610959565b9050919050565b610d6181610d46565b82525050565b6000602082019050610d7c6000830184610d58565b92915050565b610d8b81610b48565b82525050565b6000602082019050610da66000830184610d82565b92915050565b6000819050919050565b610dbf81610dac565b82525050565b6000602082019050610dda6000830184610db6565b92915050565b610de981610d0a565b8114610df457600080fd5b50565b600081359050610e0681610de0565b92915050565b600067ffffffffffffffff821115610e2757610e26610b83565b5b610e3082610ace565b9050602081019050919050565b6000610e50610e4b84610e0c565b610be3565b905082815260208101848484011115610e6c57610e6b610b7e565b5b610e77848285610c2f565b509392505050565b600082601f830112610e9457610e936109bb565b5b8135610ea4848260208601610e3d565b91505092915050565b610eb681610dac565b8114610ec157600080fd5b50565b600081359050610ed381610ead565b92915050565b600080600060608486031215610ef257610ef16109b1565b5b6000610f0086828701610df7565b935050602084013567ffffffffffffffff811115610f2157610f206109b6565b5b610f2d86828701610e7f565b9250506040610f3e86828701610ec4565b9150509250925092565b600082825260208201905092915050565b7f536f75726365206d75737420626520746865206f7261636c65206f662074686560008201527f2072657175657374000000000000000000000000000000000000000000000000602082015250565b6000610fb5602883610f48565b9150610fc082610f59565b604082019050919050565b60006020820190508181036000830152610fe481610fa8565b9050919050565b600081519050919050565b600061100182610feb565b61100b8185610f48565b935061101b818560208601610aa4565b61102481610ace565b840191505092915050565b60006040820190506110446000830185610d1c565b81810360208301526110568184610ff6565b90509392505050565b60008151905061106e81610ead565b92915050565b60006020828403121561108a576110896109b1565b5b60006110988482850161105f565b91505092915050565b7f4173736574204e616d6500000000000000000000000000000000000000000000600082015250565b60006110d7600a83610f48565b91506110e2826110a1565b602082019050919050565b6000819050919050565b600061111261110d611108846110ed565b61092d565b610dac565b9050919050565b611122816110f7565b82525050565b6000819050919050565b600061114d61114861114384611128565b61092d565b610dac565b9050919050565b61115d81611132565b82525050565b600060c0820190506111786000830188610db6565b6111856020830187610db6565b8181036040830152611196816110ca565b905081810360608301526111aa8186610ff6565b90506111b96080830185611119565b6111c660a0830184611154565b9695505050505050565b7f4e487b7100000000000000000000000000000000000000000000000000000000600052601160045260246000fd5b600061120a82610dac565b915061121583610dac565b925082820190508082111561122d5761122c6111d0565b5b92915050565b60007fffffffff0000000000000000000000000000000000000000000000000000000082169050919050565b61126881611233565b82525050565b600061010082019050611284600083018b610d1c565b611291602083018a610db6565b61129e6040830189610d82565b6112ab6060830188610d1c565b6112b8608083018761125f565b6112c560a0830186610db6565b6112d260c0830185610db6565b81810360e08301526112e48184610adf565b90509998505050505050505050565b60006112fe82610959565b9050919050565b60008160601b9050919050565b600061131d82611305565b9050919050565b600061132f82611312565b9050919050565b611347611342826112f3565b611324565b82525050565b6000819050919050565b61136861136382610dac565b61134d565b82525050565b600061137a8285611336565b60148201915061138a8284611357565b6020820191508190509392505050565b60006060820190506113af6000830186610d1c565b6113bc6020830185610db6565b81810360408301526113ce8184610adf565b9050949350505050565b6113e181610a6d565b81146113ec57600080fd5b50565b6000815190506113fe816113d8565b92915050565b60006020828403121561141a576114196109b1565b5b6000611428848285016113ef565b91505092915050565b7f756e61626c6520746f207472616e73666572416e6443616c6c20746f206f726160008201527f636c650000000000000000000000000000000000000000000000000000000000602082015250565b600061148d602383610f48565b915061149882611431565b604082019050919050565b600060208201905081810360008301526114bc81611480565b9050919050565b7f4e487b7100000000000000000000000000000000000000000000000000000000600052601260045260246000fd5b60006114fd82610dac565b915061150883610dac565b925082611518576115176114c3565b5b828206905092915050565b600061152e82610dac565b915061153983610dac565b9250828203905081811115611551576115506111d0565b5b9291505056fea2646970667358221220603caef75d4c29415eb4787b8aab13ed2d56c74d05baf03f3311f0e4139afd2464736f6c63430008140033",
  "linkReferences": {},
  "deployedLinkReferences": {}
}