{
  "_format": "hh-sol-artifact-1",
  "contractName": "AssetToken",
  "sourceName": "contracts/AssetToken.sol",
  "abi": [
    {
      "inputs": [
        {
          "internalType": "string",
          "name": "name",
          "type": "string"
        },
        {
          "internalType": "string",
          "name": "symbol",
          "type": "string"
        }
      ],
      "stateMutability": "nonpayable",
      "type": "constructor"
    },
    {
      "inputs": [
        {
          "internalType": "address",
          "name": "sender",
          "type": "address"
        },
        {
          "internalType": "uint256",
          "name": "tokenId",
          "type": "uint256"
        },
        {
          "internalType": "address",
          "name": "owner",
          "type": "address"
        }
      ],
      "name": "ERC721IncorrectOwner",
      "type": "error"
    },
    {
      "inputs": [
        {
          "internalType": "address",
          "name": "operator",
          "type": "address"
        },
        {
          "internalType": "uint256",
          "name": "tokenId",
          "type": "uint256"
        }
      ],
      "name": "ERC721InsufficientApproval",
      "type": "error"
    },
    {
      "inputs": [
        {
          "internalType": "address",
          "name": "approver",
          "type": "address"
        }
      ],
      "name": "ERC721InvalidApprover",
      "type": "error"
    },
    {
      "inputs": [
        {
          "internalType": "address",
          "name": "operator",
          "type": "address"
        }
      ],
      "name": "ERC721InvalidOperator",
      "type": "error"
    },
    {
      "inputs": [
        {
          "internalType": "address",
          "name": "owner",
          "type": "address"
        }
      ],
      "name": "ERC721InvalidOwner",
      "type": "error"
    },
    {
      "inputs": [
        {
          "internalType": "address",
          "name": "receiver",
          "type": "address"
        }
      ],
      "name": "ERC721InvalidReceiver",
      "type": "error"
    },
    {
      "inputs": [
        {
          "internalType": "address",
          "name": "sender",
          "type": "address"
        }
      ],
      "name": "ERC721InvalidSender",
      "type": "error"
    },
    {
      "inputs": [
        {
          "internalType": "uint256",
          "name": "tokenId",
          "type": "uint256"
        }
      ],
      "name": "ERC721NonexistentToken",
      "type": "error"
    },
    {
      "anonymous": false,
      "inputs": [
        {
          "indexed": true,
          "internalType": "address",
          "name": "owner",
          "type": "address"
        },
        {
          "indexed": true,
          "internalType": "address",
          "name": "approved",
          "type": "address"
        },
        {
          "indexed": true,
          "internalType": "uint256",
          "name": "tokenId",
          "type": "uint256"
        }
      ],
      "name": "Approval",
      "type": "event"
    },
    {
      "anonymous": false,
      "inputs": [
        {
          "indexed": true,
          "internalType": "address",
          "name": "owner",
          "type": "address"
        },
        {
          "indexed": true,
          "internalType": "address",
          "name": "operator",
          "type": "address"
        },
        {
          "indexed": false,
          "internalType": "bool",
          "name": "approved",
          "type": "bool"
        }
      ],
      "name": "ApprovalForAll",
      "type": "event"
    },
    {
      "anonymous": false,
      "inputs": [
        {
          "indexed": true,
          "internalType": "uint256",
          "name": "tokenId",
          "type": "uint256"
        },
        {
          "indexed": false,
          "internalType": "address",
          "name": "owner",
          "type": "address"
        }
      ],
      "name": "AssetTokenCreated",
      "type": "event"
    },
    {
      "anonymous": false,
      "inputs": [
        {
          "indexed": false,
          "internalType": "uint256",
          "name": "_fromTokenId",
          "type": "uint256"
        },
        {
          "indexed": false,
          "internalType": "uint256",
          "name": "_toTokenId",
          "type": "uint256"
        }
      ],
      "name": "BatchMetadataUpdate",
      "type": "event"
    },
    {
      "anonymous": false,
      "inputs": [
        {
          "indexed": false,
          "internalType": "uint256",
          "name": "_tokenId",
          "type": "uint256"
        }
      ],
      "name": "MetadataUpdate",
      "type": "event"
    },
    {
      "anonymous": false,
      "inputs": [
        {
          "indexed": true,
          "internalType": "address",
          "name": "from",
          "type": "address"
        },
        {
          "indexed": true,
          "internalType": "address",
          "name": "to",
          "type": "address"
        },
        {
          "indexed": true,
          "internalType": "uint256",
          "name": "tokenId",
          "type": "uint256"
        }
      ],
      "name": "Transfer",
      "type": "event"
    },
    {
      "inputs": [
        {
          "internalType": "address",
          "name": "to",
          "type": "address"
        },
        {
          "internalType": "uint256",
          "name": "tokenId",
          "type": "uint256"
        }
      ],
      "name": "approve",
      "outputs": [],
      "stateMutability": "nonpayable",
      "type": "function"
    },
    {
      "inputs": [
        {
          "internalType": "address",
          "name": "owner",
          "type": "address"
        }
      ],
      "name": "balanceOf",
      "outputs": [
        {
          "internalType": "uint256",
          "name": "",
          "type": "uint256"
        }
      ],
      "stateMutability": "view",
      "type": "function"
    },
    {
      "inputs": [
        {
          "internalType": "address",
          "name": "owner",
          "type": "address"
        },
        {
          "internalType": "string",
          "name": "tokenURI",
          "type": "string"
        }
      ],
      "name": "createAssetToken",
      "outputs": [
        {
          "internalType": "uint256",
          "name": "",
          "type": "uint256"
        }
      ],
      "stateMutability": "nonpayable",
      "type": "function"
    },
    {
      "inputs": [
        {
          "internalType": "uint256",
          "name": "tokenId",
          "type": "uint256"
        }
      ],
      "name": "getApproved",
      "outputs": [
        {
          "internalType": "address",
          "name": "",
          "type": "address"
        }
      ],
      "stateMutability": "view",
      "type": "function"
    },
    {
      "inputs": [
        {
          "internalType": "address",
          "name": "owner",
          "type": "address"
        },
        {
          "internalType": "address",
          "name": "operator",
          "type": "address"
        }
      ],
      "name": "isApprovedForAll",
      "outputs": [
        {
          "internalType": "bool",
          "name": "",
          "type": "bool"
        }
      ],
      "stateMutability": "view",
      "type": "function"
    },
    {
      "inputs": [],
      "name": "name",
      "outputs": [
        {
          "internalType": "string",
          "name": "",
          "type": "string"
        }
      ],
      "stateMutability": "view",
      "type": "function"
    },
    {
      "inputs": [
        {
          "internalType": "uint256",
          "name": "tokenId",
          "type": "uint256"
        }
      ],
      "name": "ownerOf",
      "outputs": [
        {
          "internalType": "address",
          "name": "",
          "type": "address"
        }
      ],
      "stateMutability": "view",
      "type": "function"
    },
    {
      "inputs": [
        {
          "internalType": "address",
          "name": "from",
          "type": "address"
        },
        {
          "internalType": "address",
          "name": "to",
          "type": "address"
        },
        {
          "internalType": "uint256",
          "name": "tokenId",
          "type": "uint256"
        }
      ],
      "name": "safeTransferFrom",
      "outputs": [],
      "stateMutability": "nonpayable",
      "type": "function"
    },
    {
      "inputs": [
        {
          "internalType": "address",
          "name": "from",
          "type": "address"
        },
        {
          "internalType": "address",
          "name": "to",
          "type": "address"
        },
        {
          "internalType": "uint256",
          "name": "tokenId",
          "type": "uint256"
        },
        {
          "internalType": "bytes",
          "name": "data",
          "type": "bytes"
        }
      ],
      "name": "safeTransferFrom",
      "outputs": [],
      "stateMutability": "nonpayable",
      "type": "function"
    },
    {
      "inputs": [
        {
          "internalType": "address",
          "name": "operator",
          "type": "address"
        },
        {
          "internalType": "bool",
          "name": "approved",
          "type": "bool"
        }
      ],
      "name": "setApprovalForAll",
      "outputs": [],
      "stateMutability": "nonpayable",
      "type": "function"
    },
    {
      "inputs": [
        {
          "internalType": "bytes4",
          "name": "interfaceId",
          "type": "bytes4"
        }
      ],
      "name": "supportsInterface",
      "outputs": [
        {
          "internalType": "bool",
          "name": "",
          "type": "bool"
        }
      ],
      "stateMutability": "view",
      "type": "function"
    },
    {
      "inputs": [],
      "name": "symbol",
      "outputs": [
        {
          "internalType": "string",
          "name": "",
          "type": "string"
        }
      ],
      "stateMutability": "view",
      "type": "function"
    },
    {
      "inputs": [],
      "name": "tokenCounter",
      "outputs": [
        {
          "internalType": "uint256",
          "name": "",
          "type": "uint256"
        }
      ],
      "stateMutability": "view",
      "type": "function"
    },
    {
      "inputs": [
        {
          "internalType": "uint256",
          "name": "tokenId",
          "type": "uint256"
        }
      ],
      "name": "tokenURI",
      "outputs": [
        {
          "internalType": "string",
          "name": "",
          "type": "string"
        }
      ],
      "stateMutability": "view",
      "type": "function"
    },
    {
      "inputs": [
        {
          "internalType": "address",
          "name": "from",
          "type": "address"
        },
        {
          "internalType": "address",
          "name": "to",
          "type": "address"
        },
        {
          "internalType": "uint256",
          "name": "tokenId",
          "type": "uint256"
        }
      ],
      "name": "transferFrom",
      "outputs": [],
      "stateMutability": "nonpayable",
      "type": "function"
    }
  ],
  "bytecode": "0x60806040523480156200001157600080fd5b5060405162002a1838038062002a18833981810160405281019062000037919062000202565b818181600090816200004a9190620004d2565b5080600190816200005c9190620004d2565b50505060006007819055505050620005b9565b6000604051905090565b600080fd5b600080fd5b600080fd5b600080fd5b6000601f19601f8301169050919050565b7f4e487b7100000000000000000000000000000000000000000000000000000000600052604160045260246000fd5b620000d8826200008d565b810181811067ffffffffffffffff82111715620000fa57620000f96200009e565b5b80604052505050565b60006200010f6200006f565b90506200011d8282620000cd565b919050565b600067ffffffffffffffff82111562000140576200013f6200009e565b5b6200014b826200008d565b9050602081019050919050565b60005b83811015620001785780820151818401526020810190506200015b565b60008484015250505050565b60006200019b620001958462000122565b62000103565b905082815260208101848484011115620001ba57620001b962000088565b5b620001c784828562000158565b509392505050565b600082601f830112620001e757620001e662000083565b5b8151620001f984826020860162000184565b91505092915050565b600080604083850312156200021c576200021b62000079565b5b600083015167ffffffffffffffff8111156200023d576200023c6200007e565b5b6200024b85828601620001cf565b925050602083015167ffffffffffffffff8111156200026f576200026e6200007e565b5b6200027d85828601620001cf565b9150509250929050565b600081519050919050565b7f4e487b7100000000000000000000000000000000000000000000000000000000600052602260045260246000fd5b60006002820490506001821680620002da57607f821691505b602082108103620002f057620002ef62000292565b5b50919050565b60008190508160005260206000209050919050565b60006020601f8301049050919050565b600082821b905092915050565b6000600883026200035a7fffffffffffffffffffffffffffffffffffffffffffffffffffffffffffffffff826200031b565b6200036686836200031b565b95508019841693508086168417925050509392505050565b6000819050919050565b6000819050919050565b6000620003b3620003ad620003a7846200037e565b62000388565b6200037e565b9050919050565b6000819050919050565b620003cf8362000392565b620003e7620003de82620003ba565b84845462000328565b825550505050565b600090565b620003fe620003ef565b6200040b818484620003c4565b505050565b5b81811015620004335762000427600082620003f4565b60018101905062000411565b5050565b601f82111562000482576200044c81620002f6565b62000457846200030b565b8101602085101562000467578190505b6200047f62000476856200030b565b83018262000410565b50505b505050565b600082821c905092915050565b6000620004a76000198460080262000487565b1980831691505092915050565b6000620004c2838362000494565b9150826002028217905092915050565b620004dd8262000287565b67ffffffffffffffff811115620004f957620004f86200009e565b5b620005058254620002c1565b6200051282828562000437565b600060209050601f8311600181146200054a576000841562000535578287015190505b620005418582620004b4565b865550620005b1565b601f1984166200055a86620002f6565b60005b8281101562000584578489015182556001820191506020850194506020810190506200055d565b86831015620005a45784890151620005a0601f89168262000494565b8355505b6001600288020188555050505b505050505050565b61244f80620005c96000396000f3fe608060405234801561001057600080fd5b50600436106100f55760003560e01c80636352211e11610097578063b88d4fde11610066578063b88d4fde14610296578063c87b56dd146102b2578063d082e381146102e2578063e985e9c514610300576100f5565b80636352211e146101fc57806370a082311461022c57806395d89b411461025c578063a22cb4651461027a576100f5565b8063095ea7b3116100d3578063095ea7b31461017857806323b872dd146101945780633515736d146101b057806342842e0e146101e0576100f5565b806301ffc9a7146100fa57806306fdde031461012a578063081812fc14610148575b600080fd5b610114600480360381019061010f91906118bb565b610330565b6040516101219190611903565b60405180910390f35b610132610391565b60405161013f91906119ae565b60405180910390f35b610162600480360381019061015d9190611a06565b610423565b60405161016f9190611a74565b60405180910390f35b610192600480360381019061018d9190611abb565b61043f565b005b6101ae60048036038101906101a99190611afb565b610455565b005b6101ca60048036038101906101c59190611c83565b610557565b6040516101d79190611cee565b60405180910390f35b6101fa60048036038101906101f59190611afb565b6105cf565b005b61021660048036038101906102119190611a06565b6105ef565b6040516102239190611a74565b60405180910390f35b61024660048036038101906102419190611d09565b610601565b6040516102539190611cee565b60405180910390f35b6102646106bb565b60405161027191906119ae565b60405180910390f35b610294600480360381019061028f9190611d62565b61074d565b005b6102b060048036038101906102ab9190611e43565b610763565b005b6102cc60048036038101906102c79190611a06565b610780565b6040516102d991906119ae565b60405180910390f35b6102ea610893565b6040516102f79190611cee565b60405180910390f35b61031a60048036038101906103159190611ec6565b610899565b6040516103279190611903565b60405180910390f35b6000634906490660e01b7bffffffffffffffffffffffffffffffffffffffffffffffffffffffff1916827bffffffffffffffffffffffffffffffffffffffffffffffffffffffff1916148061038a57506103898261092d565b5b9050919050565b6060600080546103a090611f35565b80601f01602080910402602001604051908101604052809291908181526020018280546103cc90611f35565b80156104195780601f106103ee57610100808354040283529160200191610419565b820191906000526020600020905b8154815290600101906020018083116103fc57829003601f168201915b5050505050905090565b600061042e82610a0f565b5061043882610a97565b9050919050565b610451828261044c610ad4565b610adc565b5050565b600073ffffffffffffffffffffffffffffffffffffffff168273ffffffffffffffffffffffffffffffffffffffff16036104c75760006040517f64a0ae920000000000000000000000000000000000000000000000000000000081526004016104be9190611a74565b60405180910390fd5b60006104db83836104d6610ad4565b610aee565b90508373ffffffffffffffffffffffffffffffffffffffff168173ffffffffffffffffffffffffffffffffffffffff1614610551578382826040517f64283d7b00000000000000000000000000000000000000000000000000000000815260040161054893929190611f66565b60405180910390fd5b50505050565b60008060075490506105698482610d08565b6105738184610d26565b6001600760008282546105869190611fcc565b92505081905550807f9dab81cd6dd963f862a4f576c0cf097e03409bff91df92bbcca64142455dea01856040516105bd9190611a74565b60405180910390a28091505092915050565b6105ea83838360405180602001604052806000815250610763565b505050565b60006105fa82610a0f565b9050919050565b60008073ffffffffffffffffffffffffffffffffffffffff168273ffffffffffffffffffffffffffffffffffffffff16036106745760006040517f89c62b6400000000000000000000000000000000000000000000000000000000815260040161066b9190611a74565b60405180910390fd5b600360008373ffffffffffffffffffffffffffffffffffffffff1673ffffffffffffffffffffffffffffffffffffffff168152602001908152602001600020549050919050565b6060600180546106ca90611f35565b80601f01602080910402602001604051908101604052809291908181526020018280546106f690611f35565b80156107435780601f1061071857610100808354040283529160200191610743565b820191906000526020600020905b81548152906001019060200180831161072657829003601f168201915b5050505050905090565b61075f610758610ad4565b8383610d82565b5050565b61076e848484610455565b61077a84848484610ef1565b50505050565b606061078b82610a0f565b5060006006600084815260200190815260200160002080546107ac90611f35565b80601f01602080910402602001604051908101604052809291908181526020018280546107d890611f35565b80156108255780601f106107fa57610100808354040283529160200191610825565b820191906000526020600020905b81548152906001019060200180831161080857829003601f168201915b5050505050905060006108366110a8565b9050600081510361084b57819250505061088e565b60008251111561088057808260405160200161086892919061203c565b6040516020818303038152906040529250505061088e565b610889846110bf565b925050505b919050565b60075481565b6000600560008473ffffffffffffffffffffffffffffffffffffffff1673ffffffffffffffffffffffffffffffffffffffff16815260200190815260200160002060008373ffffffffffffffffffffffffffffffffffffffff1673ffffffffffffffffffffffffffffffffffffffff16815260200190815260200160002060009054906101000a900460ff16905092915050565b60007f80ac58cd000000000000000000000000000000000000000000000000000000007bffffffffffffffffffffffffffffffffffffffffffffffffffffffff1916827bffffffffffffffffffffffffffffffffffffffffffffffffffffffff191614806109f857507f5b5e139f000000000000000000000000000000000000000000000000000000007bffffffffffffffffffffffffffffffffffffffffffffffffffffffff1916827bffffffffffffffffffffffffffffffffffffffffffffffffffffffff1916145b80610a085750610a0782611128565b5b9050919050565b600080610a1b83611192565b9050600073ffffffffffffffffffffffffffffffffffffffff168173ffffffffffffffffffffffffffffffffffffffff1603610a8e57826040517f7e273289000000000000000000000000000000000000000000000000000000008152600401610a859190611cee565b60405180910390fd5b80915050919050565b60006004600083815260200190815260200160002060009054906101000a900473ffffffffffffffffffffffffffffffffffffffff169050919050565b600033905090565b610ae983838360016111cf565b505050565b600080610afa84611192565b9050600073ffffffffffffffffffffffffffffffffffffffff168373ffffffffffffffffffffffffffffffffffffffff1614610b3c57610b3b818486611394565b5b600073ffffffffffffffffffffffffffffffffffffffff168173ffffffffffffffffffffffffffffffffffffffff1614610bcd57610b7e6000856000806111cf565b6001600360008373ffffffffffffffffffffffffffffffffffffffff1673ffffffffffffffffffffffffffffffffffffffff168152602001908152602001600020600082825403925050819055505b600073ffffffffffffffffffffffffffffffffffffffff168573ffffffffffffffffffffffffffffffffffffffff1614610c50576001600360008773ffffffffffffffffffffffffffffffffffffffff1673ffffffffffffffffffffffffffffffffffffffff168152602001908152602001600020600082825401925050819055505b846002600086815260200190815260200160002060006101000a81548173ffffffffffffffffffffffffffffffffffffffff021916908373ffffffffffffffffffffffffffffffffffffffff160217905550838573ffffffffffffffffffffffffffffffffffffffff168273ffffffffffffffffffffffffffffffffffffffff167fddf252ad1be2c89b69c2b068fc378daa952ba7f163c4a11628f55a4df523b3ef60405160405180910390a4809150509392505050565b610d22828260405180602001604052806000815250611458565b5050565b80600660008481526020019081526020016000209081610d46919061220c565b507ff8e1a15aba9398e019f0b49df1a4fde98ee17ae345cb5f6b5e2c27f5033e8ce782604051610d769190611cee565b60405180910390a15050565b600073ffffffffffffffffffffffffffffffffffffffff168273ffffffffffffffffffffffffffffffffffffffff1603610df357816040517f5b08ba18000000000000000000000000000000000000000000000000000000008152600401610dea9190611a74565b60405180910390fd5b80600560008573ffffffffffffffffffffffffffffffffffffffff1673ffffffffffffffffffffffffffffffffffffffff16815260200190815260200160002060008473ffffffffffffffffffffffffffffffffffffffff1673ffffffffffffffffffffffffffffffffffffffff16815260200190815260200160002060006101000a81548160ff0219169083151502179055508173ffffffffffffffffffffffffffffffffffffffff168373ffffffffffffffffffffffffffffffffffffffff167f17307eab39ab6107e8899845ad3d59bd9653f200f220920489ca2b5937696c3183604051610ee49190611903565b60405180910390a3505050565b60008373ffffffffffffffffffffffffffffffffffffffff163b11156110a2578273ffffffffffffffffffffffffffffffffffffffff1663150b7a02610f35610ad4565b8685856040518563ffffffff1660e01b8152600401610f579493929190612333565b6020604051808303816000875af1925050508015610f9357506040513d601f19601f82011682018060405250810190610f909190612394565b60015b611017573d8060008114610fc3576040519150601f19603f3d011682016040523d82523d6000602084013e610fc8565b606091505b50600081510361100f57836040517f64a0ae920000000000000000000000000000000000000000000000000000000081526004016110069190611a74565b60405180910390fd5b805181602001fd5b63150b7a0260e01b7bffffffffffffffffffffffffffffffffffffffffffffffffffffffff1916817bffffffffffffffffffffffffffffffffffffffffffffffffffffffff1916146110a057836040517f64a0ae920000000000000000000000000000000000000000000000000000000081526004016110979190611a74565b60405180910390fd5b505b50505050565b606060405180602001604052806000815250905090565b60606110ca82610a0f565b5060006110d56110a8565b905060008151116110f55760405180602001604052806000815250611120565b806110ff84611474565b60405160200161111092919061203c565b6040516020818303038152906040525b915050919050565b60007f01ffc9a7000000000000000000000000000000000000000000000000000000007bffffffffffffffffffffffffffffffffffffffffffffffffffffffff1916827bffffffffffffffffffffffffffffffffffffffffffffffffffffffff1916149050919050565b60006002600083815260200190815260200160002060009054906101000a900473ffffffffffffffffffffffffffffffffffffffff169050919050565b80806112085750600073ffffffffffffffffffffffffffffffffffffffff168273ffffffffffffffffffffffffffffffffffffffff1614155b1561133c57600061121884610a0f565b9050600073ffffffffffffffffffffffffffffffffffffffff168373ffffffffffffffffffffffffffffffffffffffff161415801561128357508273ffffffffffffffffffffffffffffffffffffffff168173ffffffffffffffffffffffffffffffffffffffff1614155b801561129657506112948184610899565b155b156112d857826040517fa9fbf51f0000000000000000000000000000000000000000000000000000000081526004016112cf9190611a74565b60405180910390fd5b811561133a57838573ffffffffffffffffffffffffffffffffffffffff168273ffffffffffffffffffffffffffffffffffffffff167f8c5be1e5ebec7d5bd14f71427d1e84f3dd0314c0f7b2291e5b200ac8c7c3b92560405160405180910390a45b505b836004600085815260200190815260200160002060006101000a81548173ffffffffffffffffffffffffffffffffffffffff021916908373ffffffffffffffffffffffffffffffffffffffff16021790555050505050565b61139f838383611542565b61145357600073ffffffffffffffffffffffffffffffffffffffff168373ffffffffffffffffffffffffffffffffffffffff160361141457806040517f7e27328900000000000000000000000000000000000000000000000000000000815260040161140b9190611cee565b60405180910390fd5b81816040517f177e802f00000000000000000000000000000000000000000000000000000000815260040161144a9291906123c1565b60405180910390fd5b505050565b6114628383611603565b61146f6000848484610ef1565b505050565b606060006001611483846116fc565b01905060008167ffffffffffffffff8111156114a2576114a1611b58565b5b6040519080825280601f01601f1916602001820160405280156114d45781602001600182028036833780820191505090505b509050600082602001820190505b600115611537578080600190039150507f3031323334353637383961626364656600000000000000000000000000000000600a86061a8153600a858161152b5761152a6123ea565b5b049450600085036114e2575b819350505050919050565b60008073ffffffffffffffffffffffffffffffffffffffff168373ffffffffffffffffffffffffffffffffffffffff16141580156115fa57508273ffffffffffffffffffffffffffffffffffffffff168473ffffffffffffffffffffffffffffffffffffffff1614806115bb57506115ba8484610899565b5b806115f957508273ffffffffffffffffffffffffffffffffffffffff166115e183610a97565b73ffffffffffffffffffffffffffffffffffffffff16145b5b90509392505050565b600073ffffffffffffffffffffffffffffffffffffffff168273ffffffffffffffffffffffffffffffffffffffff16036116755760006040517f64a0ae9200000000000000000000000000000000000000000000000000000000815260040161166c9190611a74565b60405180910390fd5b600061168383836000610aee565b9050600073ffffffffffffffffffffffffffffffffffffffff168173ffffffffffffffffffffffffffffffffffffffff16146116f75760006040517f73c6ac6e0000000000000000000000000000000000000000000000000000000081526004016116ee9190611a74565b60405180910390fd5b505050565b600080600090507a184f03e93ff9f4daa797ed6e38ed64bf6a1f010000000000000000831061175a577a184f03e93ff9f4daa797ed6e38ed64bf6a1f01000000000000000083816117505761174f6123ea565b5b0492506040810190505b6d04ee2d6d415b85acef81000000008310611797576d04ee2d6d415b85acef8100000000838161178d5761178c6123ea565b5b0492506020810190505b662386f26fc1000083106117c657662386f26fc1000083816117bc576117bb6123ea565b5b0492506010810190505b6305f5e10083106117ef576305f5e10083816117e5576117e46123ea565b5b0492506008810190505b612710831061181457612710838161180a576118096123ea565b5b0492506004810190505b60648310611837576064838161182d5761182c6123ea565b5b0492506002810190505b600a8310611846576001810190505b80915050919050565b6000604051905090565b600080fd5b600080fd5b60007fffffffff0000000000000000000000000000000000000000000000000000000082169050919050565b61189881611863565b81146118a357600080fd5b50565b6000813590506118b58161188f565b92915050565b6000602082840312156118d1576118d0611859565b5b60006118df848285016118a6565b91505092915050565b60008115159050919050565b6118fd816118e8565b82525050565b600060208201905061191860008301846118f4565b92915050565b600081519050919050565b600082825260208201905092915050565b60005b8381101561195857808201518184015260208101905061193d565b60008484015250505050565b6000601f19601f8301169050919050565b60006119808261191e565b61198a8185611929565b935061199a81856020860161193a565b6119a381611964565b840191505092915050565b600060208201905081810360008301526119c88184611975565b905092915050565b6000819050919050565b6119e3816119d0565b81146119ee57600080fd5b50565b600081359050611a00816119da565b92915050565b600060208284031215611a1c57611a1b611859565b5b6000611a2a848285016119f1565b91505092915050565b600073ffffffffffffffffffffffffffffffffffffffff82169050919050565b6000611a5e82611a33565b9050919050565b611a6e81611a53565b82525050565b6000602082019050611a896000830184611a65565b92915050565b611a9881611a53565b8114611aa357600080fd5b50565b600081359050611ab581611a8f565b92915050565b60008060408385031215611ad257611ad1611859565b5b6000611ae085828601611aa6565b9250506020611af1858286016119f1565b9150509250929050565b600080600060608486031215611b1457611b13611859565b5b6000611b2286828701611aa6565b9350506020611b3386828701611aa6565b9250506040611b44868287016119f1565b9150509250925092565b600080fd5b600080fd5b7f4e487b7100000000000000000000000000000000000000000000000000000000600052604160045260246000fd5b611b9082611964565b810181811067ffffffffffffffff82111715611baf57611bae611b58565b5b80604052505050565b6000611bc261184f565b9050611bce8282611b87565b919050565b600067ffffffffffffffff821115611bee57611bed611b58565b5b611bf782611964565b9050602081019050919050565b82818337600083830152505050565b6000611c26611c2184611bd3565b611bb8565b905082815260208101848484011115611c4257611c41611b53565b5b611c4d848285611c04565b509392505050565b600082601f830112611c6a57611c69611b4e565b5b8135611c7a848260208601611c13565b91505092915050565b60008060408385031215611c9a57611c99611859565b5b6000611ca885828601611aa6565b925050602083013567ffffffffffffffff811115611cc957611cc861185e565b5b611cd585828601611c55565b9150509250929050565b611ce8816119d0565b82525050565b6000602082019050611d036000830184611cdf565b92915050565b600060208284031215611d1f57611d1e611859565b5b6000611d2d84828501611aa6565b91505092915050565b611d3f816118e8565b8114611d4a57600080fd5b50565b600081359050611d5c81611d36565b92915050565b60008060408385031215611d7957611d78611859565b5b6000611d8785828601611aa6565b9250506020611d9885828601611d4d565b9150509250929050565b600067ffffffffffffffff821115611dbd57611dbc611b58565b5b611dc682611964565b9050602081019050919050565b6000611de6611de184611da2565b611bb8565b905082815260208101848484011115611e0257611e01611b53565b5b611e0d848285611c04565b509392505050565b600082601f830112611e2a57611e29611b4e565b5b8135611e3a848260208601611dd3565b91505092915050565b60008060008060808587031215611e5d57611e5c611859565b5b6000611e6b87828801611aa6565b9450506020611e7c87828801611aa6565b9350506040611e8d878288016119f1565b925050606085013567ffffffffffffffff811115611eae57611ead61185e565b5b611eba87828801611e15565b91505092959194509250565b60008060408385031215611edd57611edc611859565b5b6000611eeb85828601611aa6565b9250506020611efc85828601611aa6565b9150509250929050565b7f4e487b7100000000000000000000000000000000000000000000000000000000600052602260045260246000fd5b60006002820490506001821680611f4d57607f821691505b602082108103611f6057611f5f611f06565b5b50919050565b6000606082019050611f7b6000830186611a65565b611f886020830185611cdf565b611f956040830184611a65565b949350505050565b7f4e487b7100000000000000000000000000000000000000000000000000000000600052601160045260246000fd5b6000611fd7826119d0565b9150611fe2836119d0565b9250828201905080821115611ffa57611ff9611f9d565b5b92915050565b600081905092915050565b60006120168261191e565b6120208185612000565b935061203081856020860161193a565b80840191505092915050565b6000612048828561200b565b9150612054828461200b565b91508190509392505050565b60008190508160005260206000209050919050565b60006020601f8301049050919050565b600082821b905092915050565b6000600883026120c27fffffffffffffffffffffffffffffffffffffffffffffffffffffffffffffffff82612085565b6120cc8683612085565b95508019841693508086168417925050509392505050565b6000819050919050565b60006121096121046120ff846119d0565b6120e4565b6119d0565b9050919050565b6000819050919050565b612123836120ee565b61213761212f82612110565b848454612092565b825550505050565b600090565b61214c61213f565b61215781848461211a565b505050565b5b8181101561217b57612170600082612144565b60018101905061215d565b5050565b601f8211156121c05761219181612060565b61219a84612075565b810160208510156121a9578190505b6121bd6121b585612075565b83018261215c565b50505b505050565b600082821c905092915050565b60006121e3600019846008026121c5565b1980831691505092915050565b60006121fc83836121d2565b9150826002028217905092915050565b6122158261191e565b67ffffffffffffffff81111561222e5761222d611b58565b5b6122388254611f35565b61224382828561217f565b600060209050601f8311600181146122765760008415612264578287015190505b61226e85826121f0565b8655506122d6565b601f19841661228486612060565b60005b828110156122ac57848901518255600182019150602085019450602081019050612287565b868310156122c957848901516122c5601f8916826121d2565b8355505b6001600288020188555050505b505050505050565b600081519050919050565b600082825260208201905092915050565b6000612305826122de565b61230f81856122e9565b935061231f81856020860161193a565b61232881611964565b840191505092915050565b60006080820190506123486000830187611a65565b6123556020830186611a65565b6123626040830185611cdf565b818103606083015261237481846122fa565b905095945050505050565b60008151905061238e8161188f565b92915050565b6000602082840312156123aa576123a9611859565b5b60006123b88482850161237f565b91505092915050565b60006040820190506123d66000830185611a65565b6123e36020830184611cdf565b9392505050565b7f4e487b7100000000000000000000000000000000000000000000000000000000600052601260045260246000fdfea2646970667358221220da3cadd5b595cf5a8bb89b1166eb471d69fc360aedcfb1f8b446acb437347bce64736f6c63430008140033",
  "linkReferences": {},
  "deployedLinkReferences": {}
}