{
  "_format": "hh-sol-artifact-1",
  "contractName": "Marketplace",
  "sourceName": "contracts/Marketplace.sol",
  "abi": [
    {
      "inputs": [
        {
          "internalType": "address",
          "name": "_assetTokenAddress",
          "type": "address"
        },
        {
          "internalType": "address",
          "name": "_attestationAddress",
          "type": "address"
        },
        {
          "internalType": "address",
          "name": "_usdcTokenAddress",
          "type": "address"
        }
      ],
      "stateMutability": "nonpayable",
      "type": "constructor"
    },
    {
      "anonymous": false,
      "inputs": [
        {
          "indexed": true,
          "internalType": "uint256",
          "name": "assetId",
          "type": "uint256"
        },
        {
          "indexed": false,
          "internalType": "address",
          "name": "verifier",
          "type": "address"
        },
        {
          "indexed": false,
          "internalType": "bool",
          "name": "success",
          "type": "bool"
        },
        {
          "indexed": false,
          "internalType": "uint256",
          "name": "timestamp",
          "type": "uint256"
        }
      ],
      "name": "AssetAttested",
      "type": "event"
    },
    {
      "anonymous": false,
      "inputs": [
        {
          "indexed": true,
          "internalType": "uint256",
          "name": "assetId",
          "type": "uint256"
        },
        {
          "indexed": true,
          "internalType": "address",
          "name": "owner",
          "type": "address"
        },
        {
          "indexed": false,
          "internalType": "uint256",
          "name": "price",
          "type": "uint256"
        },
        {
          "indexed": false,
          "internalType": "string",
          "name": "name",
          "type": "string"
        },
        {
          "indexed": false,
          "internalType": "string",
          "name": "image",
          "type": "string"
        },
        {
          "indexed": false,
          "internalType": "uint256",
          "name": "year",
          "type": "uint256"
        },
        {
          "indexed": false,
          "internalType": "uint256",
          "name": "length",
          "type": "uint256"
        }
      ],
      "name": "AssetListed",
      "type": "event"
    },
    {
      "anonymous": false,
      "inputs": [
        {
          "indexed": true,
          "internalType": "uint256",
          "name": "assetId",
          "type": "uint256"
        },
        {
          "indexed": true,
          "internalType": "address",
          "name": "seller",
          "type": "address"
        },
        {
          "indexed": true,
          "internalType": "address",
          "name": "buyer",
          "type": "address"
        },
        {
          "indexed": false,
          "internalType": "uint256",
          "name": "price",
          "type": "uint256"
        },
        {
          "indexed": false,
          "internalType": "uint256",
          "name": "timestamp",
          "type": "uint256"
        }
      ],
      "name": "AssetPurchased",
      "type": "event"
    },
    {
      "inputs": [
        {
          "internalType": "uint256",
          "name": "",
          "type": "uint256"
        }
      ],
      "name": "assetIds",
      "outputs": [
        {
          "internalType": "uint256",
          "name": "",
          "type": "uint256"
        }
      ],
      "stateMutability": "view",
      "type": "function"
    },
    {
      "inputs": [],
      "name": "assetToken",
      "outputs": [
        {
          "internalType": "contract AssetToken",
          "name": "",
          "type": "address"
        }
      ],
      "stateMutability": "view",
      "type": "function"
    },
    {
      "inputs": [
        {
          "internalType": "uint256",
          "name": "",
          "type": "uint256"
        }
      ],
      "name": "assets",
      "outputs": [
        {
          "internalType": "uint256",
          "name": "id",
          "type": "uint256"
        },
        {
          "internalType": "address payable",
          "name": "owner",
          "type": "address"
        },
        {
          "internalType": "uint256",
          "name": "price",
          "type": "uint256"
        },
        {
          "internalType": "string",
          "name": "name",
          "type": "string"
        },
        {
          "internalType": "string",
          "name": "image",
          "type": "string"
        },
        {
          "internalType": "uint256",
          "name": "year",
          "type": "uint256"
        },
        {
          "internalType": "uint256",
          "name": "length",
          "type": "uint256"
        },
        {
          "internalType": "uint8",
          "name": "attestationStatus",
          "type": "uint8"
        }
      ],
      "stateMutability": "view",
      "type": "function"
    },
    {
      "inputs": [
        {
          "internalType": "uint256",
          "name": "assetId",
          "type": "uint256"
        }
      ],
      "name": "attestAndBuy",
      "outputs": [],
      "stateMutability": "nonpayable",
      "type": "function"
    },
    {
      "inputs": [],
      "name": "attestationContract",
      "outputs": [
        {
          "internalType": "contract AttestationContract",
          "name": "",
          "type": "address"
        }
      ],
      "stateMutability": "view",
      "type": "function"
    },
    {
      "inputs": [],
      "name": "getAssetIds",
      "outputs": [
        {
          "internalType": "uint256[]",
          "name": "",
          "type": "uint256[]"
        }
      ],
      "stateMutability": "view",
      "type": "function"
    },
    {
      "inputs": [
        {
          "internalType": "uint256",
          "name": "tokenId",
          "type": "uint256"
        },
        {
          "internalType": "uint256",
          "name": "price",
          "type": "uint256"
        },
        {
          "internalType": "string",
          "name": "name",
          "type": "string"
        },
        {
          "internalType": "string",
          "name": "image",
          "type": "string"
        },
        {
          "internalType": "uint256",
          "name": "year",
          "type": "uint256"
        },
        {
          "internalType": "uint256",
          "name": "length",
          "type": "uint256"
        }
      ],
      "name": "listAsset",
      "outputs": [],
      "stateMutability": "nonpayable",
      "type": "function"
    },
    {
      "inputs": [
        {
          "internalType": "uint256",
          "name": "assetId",
          "type": "uint256"
        }
      ],
      "name": "purchaseAsset",
      "outputs": [],
      "stateMutability": "nonpayable",
      "type": "function"
    },
    {
      "inputs": [],
      "name": "usdcToken",
      "outputs": [
        {
          "internalType": "contract IERC20",
          "name": "",
          "type": "address"
        }
      ],
      "stateMutability": "view",
      "type": "function"
    },
    {
      "inputs": [
        {
          "internalType": "uint256",
          "name": "assetId",
          "type": "uint256"
        },
        {
          "internalType": "bool",
          "name": "success",
          "type": "bool"
        }
      ],
      "name": "verifyAsset",
      "outputs": [],
      "stateMutability": "nonpayable",
      "type": "function"
    }
  ],
  "bytecode": "0x60806040523480156200001157600080fd5b5060405162001c8e38038062001c8e83398181016040528101906200003791906200016c565b826000806101000a81548173ffffffffffffffffffffffffffffffffffffffff021916908373ffffffffffffffffffffffffffffffffffffffff16021790555081600160006101000a81548173ffffffffffffffffffffffffffffffffffffffff021916908373ffffffffffffffffffffffffffffffffffffffff16021790555080600260006101000a81548173ffffffffffffffffffffffffffffffffffffffff021916908373ffffffffffffffffffffffffffffffffffffffff160217905550505050620001c8565b600080fd5b600073ffffffffffffffffffffffffffffffffffffffff82169050919050565b6000620001348262000107565b9050919050565b620001468162000127565b81146200015257600080fd5b50565b60008151905062000166816200013b565b92915050565b60008060006060848603121562000188576200018762000102565b5b6000620001988682870162000155565b9350506020620001ab8682870162000155565b9250506040620001be8682870162000155565b9150509250925092565b611ab680620001d86000396000f3fe608060405234801561001057600080fd5b506004361061009e5760003560e01c806387541ed61161006657806387541ed61461013357806387be6d4e14610163578063a457e1c014610181578063cf35bdd01461019d578063e47e1c0b146101d45761009e565b80631083f761146100a357806311eac855146100c1578063534ed707146100df5780635c3adae0146100fb5780637a3dcd6b14610117575b600080fd5b6100ab6101f2565b6040516100b89190610d8d565b60405180910390f35b6100c9610216565b6040516100d69190610dc9565b60405180910390f35b6100f960048036038101906100f49190610f74565b61023c565b005b61011560048036038101906101109190611039565b610580565b005b610131600480360381019061012c919061109e565b61064d565b005b61014d60048036038101906101489190611039565b61075f565b60405161015a91906110ed565b60405180910390f35b61016b610783565b6040516101789190611129565b60405180910390f35b61019b60048036038101906101969190611039565b6107a9565b005b6101b760048036038101906101b29190611039565b610ad4565b6040516101cb989796959493929190611200565b60405180910390f35b6101dc610c59565b6040516101e9919061134a565b60405180910390f35b60008054906101000a900473ffffffffffffffffffffffffffffffffffffffff1681565b600260009054906101000a900473ffffffffffffffffffffffffffffffffffffffff1681565b3373ffffffffffffffffffffffffffffffffffffffff1660008054906101000a900473ffffffffffffffffffffffffffffffffffffffff1673ffffffffffffffffffffffffffffffffffffffff16636352211e886040518263ffffffff1660e01b81526004016102ac91906110ed565b602060405180830381865afa1580156102c9573d6000803e3d6000fd5b505050506040513d601f19601f820116820180604052508101906102ed91906113aa565b73ffffffffffffffffffffffffffffffffffffffff1614610343576040517f08c379a000000000000000000000000000000000000000000000000000000000815260040161033a90611423565b60405180910390fd5b60008054906101000a900473ffffffffffffffffffffffffffffffffffffffff1673ffffffffffffffffffffffffffffffffffffffff166323b872dd3330896040518463ffffffff1660e01b81526004016103a093929190611452565b600060405180830381600087803b1580156103ba57600080fd5b505af11580156103ce573d6000803e3d6000fd5b505050506040518061010001604052808781526020013373ffffffffffffffffffffffffffffffffffffffff168152602001868152602001858152602001848152602001838152602001828152602001600060ff16815250600360008881526020019081526020016000206000820151816000015560208201518160010160006101000a81548173ffffffffffffffffffffffffffffffffffffffff021916908373ffffffffffffffffffffffffffffffffffffffff1602179055506040820151816002015560608201518160030190816104a9919061168b565b5060808201518160040190816104bf919061168b565b5060a0820151816005015560c0820151816006015560e08201518160070160006101000a81548160ff021916908360ff16021790555090505060048690806001815401808255809150506001900390600052602060002001600090919091909150553373ffffffffffffffffffffffffffffffffffffffff16867f33a32c4a074c842c08f7488c58de49026eff0740862230c7c20a50bdea475d66878787878760405161057095949392919061175d565b60405180910390a3505050505050565b600060036000838152602001908152602001600020905060008160070160009054906101000a900460ff1660ff16146105ee576040517f08c379a00000000000000000000000000000000000000000000000000000000081526004016105e590611830565b60405180910390fd5b60018160070160006101000a81548160ff021916908360ff160217905550817f02d1cb3e2bdcb62d2249bf5667c513a882d16026a96b82ea0200d7a2e085d2d0336001426040516106419392919061185f565b60405180910390a25050565b600160009054906101000a900473ffffffffffffffffffffffffffffffffffffffff1673ffffffffffffffffffffffffffffffffffffffff16632dea6caa83836040518363ffffffff1660e01b81526004016106aa929190611896565b600060405180830381600087803b1580156106c457600080fd5b505af11580156106d8573d6000803e3d6000fd5b505050506000600360008481526020019081526020016000209050816106ff576001610702565b60005b8160070160006101000a81548160ff021916908360ff160217905550827f02d1cb3e2bdcb62d2249bf5667c513a882d16026a96b82ea0200d7a2e085d2d03384426040516107529392919061185f565b60405180910390a2505050565b6004818154811061076f57600080fd5b906000526020600020016000915090505481565b600160009054906101000a900473ffffffffffffffffffffffffffffffffffffffff1681565b600060036000838152602001908152602001600020905060008160070160009054906101000a900460ff1660ff1614610817576040517f08c379a000000000000000000000000000000000000000000000000000000000815260040161080e90611931565b60405180910390fd5b600260009054906101000a900473ffffffffffffffffffffffffffffffffffffffff1673ffffffffffffffffffffffffffffffffffffffff166323b872dd338360010160009054906101000a900473ffffffffffffffffffffffffffffffffffffffff1684600201546040518463ffffffff1660e01b815260040161089e93929190611972565b6020604051808303816000875af11580156108bd573d6000803e3d6000fd5b505050506040513d601f19601f820116820180604052508101906108e191906119be565b610920576040517f08c379a000000000000000000000000000000000000000000000000000000000815260040161091790611a37565b60405180910390fd5b60008054906101000a900473ffffffffffffffffffffffffffffffffffffffff1673ffffffffffffffffffffffffffffffffffffffff166323b872dd3033856040518463ffffffff1660e01b815260040161097d93929190611452565b600060405180830381600087803b15801561099757600080fd5b505af11580156109ab573d6000803e3d6000fd5b505050503373ffffffffffffffffffffffffffffffffffffffff168160010160009054906101000a900473ffffffffffffffffffffffffffffffffffffffff1673ffffffffffffffffffffffffffffffffffffffff16837f1ad0ebb66dc7b888279f2061960df49b34501e10e4ef555fe0a65456fdb88930846002015442604051610a37929190611a57565b60405180910390a4600360008381526020019081526020016000206000808201600090556001820160006101000a81549073ffffffffffffffffffffffffffffffffffffffff02191690556002820160009055600382016000610a9a9190610cb1565b600482016000610aaa9190610cb1565b600582016000905560068201600090556007820160006101000a81549060ff021916905550505050565b60036020528060005260406000206000915090508060000154908060010160009054906101000a900473ffffffffffffffffffffffffffffffffffffffff1690806002015490806003018054610b29906114b8565b80601f0160208091040260200160405190810160405280929190818152602001828054610b55906114b8565b8015610ba25780601f10610b7757610100808354040283529160200191610ba2565b820191906000526020600020905b815481529060010190602001808311610b8557829003601f168201915b505050505090806004018054610bb7906114b8565b80601f0160208091040260200160405190810160405280929190818152602001828054610be3906114b8565b8015610c305780601f10610c0557610100808354040283529160200191610c30565b820191906000526020600020905b815481529060010190602001808311610c1357829003601f168201915b5050505050908060050154908060060154908060070160009054906101000a900460ff16905088565b60606004805480602002602001604051908101604052809291908181526020018280548015610ca757602002820191906000526020600020905b815481526020019060010190808311610c93575b5050505050905090565b508054610cbd906114b8565b6000825580601f10610ccf5750610cee565b601f016020900490600052602060002090810190610ced9190610cf1565b5b50565b5b80821115610d0a576000816000905550600101610cf2565b5090565b600073ffffffffffffffffffffffffffffffffffffffff82169050919050565b6000819050919050565b6000610d53610d4e610d4984610d0e565b610d2e565b610d0e565b9050919050565b6000610d6582610d38565b9050919050565b6000610d7782610d5a565b9050919050565b610d8781610d6c565b82525050565b6000602082019050610da26000830184610d7e565b92915050565b6000610db382610d5a565b9050919050565b610dc381610da8565b82525050565b6000602082019050610dde6000830184610dba565b92915050565b6000604051905090565b600080fd5b600080fd5b6000819050919050565b610e0b81610df8565b8114610e1657600080fd5b50565b600081359050610e2881610e02565b92915050565b600080fd5b600080fd5b6000601f19601f8301169050919050565b7f4e487b7100000000000000000000000000000000000000000000000000000000600052604160045260246000fd5b610e8182610e38565b810181811067ffffffffffffffff82111715610ea057610e9f610e49565b5b80604052505050565b6000610eb3610de4565b9050610ebf8282610e78565b919050565b600067ffffffffffffffff821115610edf57610ede610e49565b5b610ee882610e38565b9050602081019050919050565b82818337600083830152505050565b6000610f17610f1284610ec4565b610ea9565b905082815260208101848484011115610f3357610f32610e33565b5b610f3e848285610ef5565b509392505050565b600082601f830112610f5b57610f5a610e2e565b5b8135610f6b848260208601610f04565b91505092915050565b60008060008060008060c08789031215610f9157610f90610dee565b5b6000610f9f89828a01610e19565b9650506020610fb089828a01610e19565b955050604087013567ffffffffffffffff811115610fd157610fd0610df3565b5b610fdd89828a01610f46565b945050606087013567ffffffffffffffff811115610ffe57610ffd610df3565b5b61100a89828a01610f46565b935050608061101b89828a01610e19565b92505060a061102c89828a01610e19565b9150509295509295509295565b60006020828403121561104f5761104e610dee565b5b600061105d84828501610e19565b91505092915050565b60008115159050919050565b61107b81611066565b811461108657600080fd5b50565b60008135905061109881611072565b92915050565b600080604083850312156110b5576110b4610dee565b5b60006110c385828601610e19565b92505060206110d485828601611089565b9150509250929050565b6110e781610df8565b82525050565b600060208201905061110260008301846110de565b92915050565b600061111382610d5a565b9050919050565b61112381611108565b82525050565b600060208201905061113e600083018461111a565b92915050565b600061114f82610d0e565b9050919050565b61115f81611144565b82525050565b600081519050919050565b600082825260208201905092915050565b60005b8381101561119f578082015181840152602081019050611184565b60008484015250505050565b60006111b682611165565b6111c08185611170565b93506111d0818560208601611181565b6111d981610e38565b840191505092915050565b600060ff82169050919050565b6111fa816111e4565b82525050565b600061010082019050611216600083018b6110de565b611223602083018a611156565b61123060408301896110de565b818103606083015261124281886111ab565b9050818103608083015261125681876111ab565b905061126560a08301866110de565b61127260c08301856110de565b61127f60e08301846111f1565b9998505050505050505050565b600081519050919050565b600082825260208201905092915050565b6000819050602082019050919050565b6112c181610df8565b82525050565b60006112d383836112b8565b60208301905092915050565b6000602082019050919050565b60006112f78261128c565b6113018185611297565b935061130c836112a8565b8060005b8381101561133d57815161132488826112c7565b975061132f836112df565b925050600181019050611310565b5085935050505092915050565b6000602082019050818103600083015261136481846112ec565b905092915050565b600061137782610d0e565b9050919050565b6113878161136c565b811461139257600080fd5b50565b6000815190506113a48161137e565b92915050565b6000602082840312156113c0576113bf610dee565b5b60006113ce84828501611395565b91505092915050565b7f4f6e6c79206f776e65722063616e206c69737420617373657400000000000000600082015250565b600061140d601983611170565b9150611418826113d7565b602082019050919050565b6000602082019050818103600083015261143c81611400565b9050919050565b61144c8161136c565b82525050565b60006060820190506114676000830186611443565b6114746020830185611443565b61148160408301846110de565b949350505050565b7f4e487b7100000000000000000000000000000000000000000000000000000000600052602260045260246000fd5b600060028204905060018216806114d057607f821691505b6020821081036114e3576114e2611489565b5b50919050565b60008190508160005260206000209050919050565b60006020601f8301049050919050565b600082821b905092915050565b60006008830261154b7fffffffffffffffffffffffffffffffffffffffffffffffffffffffffffffffff8261150e565b611555868361150e565b95508019841693508086168417925050509392505050565b600061158861158361157e84610df8565b610d2e565b610df8565b9050919050565b6000819050919050565b6115a28361156d565b6115b66115ae8261158f565b84845461151b565b825550505050565b600090565b6115cb6115be565b6115d6818484611599565b505050565b5b818110156115fa576115ef6000826115c3565b6001810190506115dc565b5050565b601f82111561163f57611610816114e9565b611619846114fe565b81016020851015611628578190505b61163c611634856114fe565b8301826115db565b50505b505050565b600082821c905092915050565b600061166260001984600802611644565b1980831691505092915050565b600061167b8383611651565b9150826002028217905092915050565b61169482611165565b67ffffffffffffffff8111156116ad576116ac610e49565b5b6116b782546114b8565b6116c28282856115fe565b600060209050601f8311600181146116f557600084156116e3578287015190505b6116ed858261166f565b865550611755565b601f198416611703866114e9565b60005b8281101561172b57848901518255600182019150602085019450602081019050611706565b868310156117485784890151611744601f891682611651565b8355505b6001600288020188555050505b505050505050565b600060a08201905061177260008301886110de565b818103602083015261178481876111ab565b9050818103604083015261179881866111ab565b90506117a760608301856110de565b6117b460808301846110de565b9695505050505050565b7f417373657420616c7265616479206f70656e20666f722061747465737461746960008201527f6f6e000000000000000000000000000000000000000000000000000000000000602082015250565b600061181a602283611170565b9150611825826117be565b604082019050919050565b600060208201905081810360008301526118498161180d565b9050919050565b61185981611066565b82525050565b60006060820190506118746000830186611443565b6118816020830185611850565b61188e60408301846110de565b949350505050565b60006040820190506118ab60008301856110de565b6118b86020830184611850565b9392505050565b7f4173736574206e6f7420617661696c61626c6520666f7220646972656374207060008201527f7572636861736500000000000000000000000000000000000000000000000000602082015250565b600061191b602783611170565b9150611926826118bf565b604082019050919050565b6000602082019050818103600083015261194a8161190e565b9050919050565b600061195c82610d5a565b9050919050565b61196c81611951565b82525050565b60006060820190506119876000830186611443565b6119946020830185611963565b6119a160408301846110de565b949350505050565b6000815190506119b881611072565b92915050565b6000602082840312156119d4576119d3610dee565b5b60006119e2848285016119a9565b91505092915050565b7f55534443207472616e73666572206661696c6564000000000000000000000000600082015250565b6000611a21601483611170565b9150611a2c826119eb565b602082019050919050565b60006020820190508181036000830152611a5081611a14565b9050919050565b6000604082019050611a6c60008301856110de565b611a7960208301846110de565b939250505056fea26469706673582212202a333d8073acb0981bb0c55a599bc1715da88d9701e454c9b8ba3bbc5bace53c64736f6c63430008140033",
  "linkReferences": {},
  "deployedLinkReferences": {}
}